{
  "_format": "hh-sol-artifact-1",
  "contractName": "Loan",
  "sourceName": "contracts/Loan.sol",
  "abi": [
    {
      "inputs": [
        {
          "internalType": "address",
          "name": "_tokenAddress",
          "type": "address"
        }
      ],
      "stateMutability": "nonpayable",
      "type": "constructor"
    },
    {
      "anonymous": false,
      "inputs": [
        {
          "indexed": true,
          "internalType": "address",
          "name": "lender",
          "type": "address"
        },
        {
          "indexed": false,
          "internalType": "uint256",
          "name": "lendAmountEther",
          "type": "uint256"
        },
        {
          "indexed": false,
          "internalType": "uint256",
          "name": "lendAmountToken",
          "type": "uint256"
        },
        {
          "indexed": false,
          "internalType": "uint256",
          "name": "paybackAmountEther",
          "type": "uint256"
        },
        {
          "indexed": false,
          "internalType": "uint256",
          "name": "paybackAmountToken",
          "type": "uint256"
        },
        {
          "indexed": false,
          "internalType": "uint256",
          "name": "timeLend",
          "type": "uint256"
        },
        {
          "indexed": false,
          "internalType": "uint256",
          "name": "timeCanGetInterest",
          "type": "uint256"
        },
        {
          "indexed": false,
          "internalType": "bool",
          "name": "retrieved",
          "type": "bool"
        },
        {
          "indexed": false,
          "internalType": "bool",
          "name": "isLendEther",
          "type": "bool"
        }
      ],
      "name": "NewLend",
      "type": "event"
    },
    {
      "anonymous": false,
      "inputs": [
        {
          "indexed": true,
          "internalType": "address",
          "name": "borrower",
          "type": "address"
        },
        {
          "indexed": false,
          "internalType": "uint256",
          "name": "loanAmount",
          "type": "uint256"
        },
        {
          "indexed": false,
          "internalType": "uint256",
          "name": "collateralAmount",
          "type": "uint256"
        },
        {
          "indexed": false,
          "internalType": "uint256",
          "name": "paybackAmount",
          "type": "uint256"
        },
        {
          "indexed": false,
          "internalType": "uint256",
          "name": "loanDueDate",
          "type": "uint256"
        },
        {
          "indexed": false,
          "internalType": "uint256",
          "name": "duration",
          "type": "uint256"
        }
      ],
      "name": "NewLoanEther",
      "type": "event"
    },
    {
      "anonymous": false,
      "inputs": [
        {
          "indexed": false,
          "internalType": "address",
          "name": "borrower",
          "type": "address"
        },
        {
          "indexed": false,
          "internalType": "bool",
          "name": "paybackSuccess",
          "type": "bool"
        },
        {
          "indexed": false,
          "internalType": "uint256",
          "name": "paybackTime",
          "type": "uint256"
        },
        {
          "indexed": false,
          "internalType": "uint256",
          "name": "paybackAmount",
          "type": "uint256"
        },
        {
          "indexed": false,
          "internalType": "uint256",
          "name": "returnCollateralAmount",
          "type": "uint256"
        }
      ],
      "name": "PayBack",
      "type": "event"
    },
    {
      "anonymous": false,
      "inputs": [
        {
          "indexed": false,
          "internalType": "bool",
          "name": "isEarnInterest",
          "type": "bool"
        },
        {
          "indexed": false,
          "internalType": "bool",
          "name": "isWithdrawEther",
          "type": "bool"
        },
        {
          "indexed": false,
          "internalType": "uint256",
          "name": "withdrawAmount",
          "type": "uint256"
        }
      ],
      "name": "Withdraw",
      "type": "event"
    },
    {
      "inputs": [
        {
          "internalType": "uint256",
          "name": "_amount",
          "type": "uint256"
        }
      ],
      "name": "checkEnoughLiquidity",
      "outputs": [
        {
          "internalType": "bool",
          "name": "",
          "type": "bool"
        }
      ],
      "stateMutability": "view",
      "type": "function"
    },
    {
      "inputs": [
        {
          "internalType": "uint256",
          "name": "_amount",
          "type": "uint256"
        }
      ],
      "name": "collateralAmount",
      "outputs": [
        {
          "internalType": "uint256",
          "name": "",
          "type": "uint256"
        }
      ],
      "stateMutability": "view",
      "type": "function"
    },
    {
      "inputs": [
        {
          "internalType": "uint256",
          "name": "_tokenAmount",
          "type": "uint256"
        }
      ],
      "name": "countEtherFromCollateral",
      "outputs": [
        {
          "internalType": "uint256",
          "name": "",
          "type": "uint256"
        }
      ],
      "stateMutability": "view",
      "type": "function"
    },
    {
      "inputs": [],
      "name": "ethPerToken",
      "outputs": [
        {
          "internalType": "uint256",
          "name": "",
          "type": "uint256"
        }
      ],
      "stateMutability": "view",
      "type": "function"
    },
    {
      "inputs": [],
      "name": "getAllUserLoans",
      "outputs": [
        {
          "components": [
            {
              "internalType": "address",
              "name": "borrower",
              "type": "address"
            },
            {
              "internalType": "uint256",
              "name": "loanAmount",
              "type": "uint256"
            },
            {
              "internalType": "uint256",
              "name": "collateralAmount",
              "type": "uint256"
            },
            {
              "internalType": "uint256",
              "name": "paybackAmount",
              "type": "uint256"
            },
            {
              "internalType": "uint256",
              "name": "loanDueDate",
              "type": "uint256"
            },
            {
              "internalType": "uint256",
              "name": "duration",
              "type": "uint256"
            },
            {
              "internalType": "uint256",
              "name": "loanId",
              "type": "uint256"
            },
            {
              "internalType": "bool",
              "name": "isPayback",
              "type": "bool"
            }
          ],
          "internalType": "struct Loan.LoanRequest[]",
          "name": "",
          "type": "tuple[]"
        }
      ],
      "stateMutability": "view",
      "type": "function"
    },
    {
      "inputs": [],
      "name": "getUserAllLends",
      "outputs": [
        {
          "components": [
            {
              "internalType": "address",
              "name": "lender",
              "type": "address"
            },
            {
              "internalType": "uint256",
              "name": "lendId",
              "type": "uint256"
            },
            {
              "internalType": "uint256",
              "name": "lendAmountEther",
              "type": "uint256"
            },
            {
              "internalType": "uint256",
              "name": "lendAmountToken",
              "type": "uint256"
            },
            {
              "internalType": "uint256",
              "name": "paybackAmountEther",
              "type": "uint256"
            },
            {
              "internalType": "uint256",
              "name": "paybackAmountToken",
              "type": "uint256"
            },
            {
              "internalType": "uint256",
              "name": "timeLend",
              "type": "uint256"
            },
            {
              "internalType": "uint256",
              "name": "timeCanGetInterest",
              "type": "uint256"
            },
            {
              "internalType": "bool",
              "name": "retrieved",
              "type": "bool"
            },
            {
              "internalType": "bool",
              "name": "isLendEther",
              "type": "bool"
            }
          ],
          "internalType": "struct Loan.LendRequest[]",
          "name": "",
          "type": "tuple[]"
        }
      ],
      "stateMutability": "view",
      "type": "function"
    },
    {
      "inputs": [],
      "name": "getUserNotRetrieveLend",
      "outputs": [
        {
          "components": [
            {
              "internalType": "address",
              "name": "lender",
              "type": "address"
            },
            {
              "internalType": "uint256",
              "name": "lendId",
              "type": "uint256"
            },
            {
              "internalType": "uint256",
              "name": "lendAmountEther",
              "type": "uint256"
            },
            {
              "internalType": "uint256",
              "name": "lendAmountToken",
              "type": "uint256"
            },
            {
              "internalType": "uint256",
              "name": "paybackAmountEther",
              "type": "uint256"
            },
            {
              "internalType": "uint256",
              "name": "paybackAmountToken",
              "type": "uint256"
            },
            {
              "internalType": "uint256",
              "name": "timeLend",
              "type": "uint256"
            },
            {
              "internalType": "uint256",
              "name": "timeCanGetInterest",
              "type": "uint256"
            },
            {
              "internalType": "bool",
              "name": "retrieved",
              "type": "bool"
            },
            {
              "internalType": "bool",
              "name": "isLendEther",
              "type": "bool"
            }
          ],
          "internalType": "struct Loan.LendRequest[]",
          "name": "",
          "type": "tuple[]"
        }
      ],
      "stateMutability": "view",
      "type": "function"
    },
    {
      "inputs": [],
      "name": "getUserOngoingLoans",
      "outputs": [
        {
          "components": [
            {
              "internalType": "address",
              "name": "borrower",
              "type": "address"
            },
            {
              "internalType": "uint256",
              "name": "loanAmount",
              "type": "uint256"
            },
            {
              "internalType": "uint256",
              "name": "collateralAmount",
              "type": "uint256"
            },
            {
              "internalType": "uint256",
              "name": "paybackAmount",
              "type": "uint256"
            },
            {
              "internalType": "uint256",
              "name": "loanDueDate",
              "type": "uint256"
            },
            {
              "internalType": "uint256",
              "name": "duration",
              "type": "uint256"
            },
            {
              "internalType": "uint256",
              "name": "loanId",
              "type": "uint256"
            },
            {
              "internalType": "bool",
              "name": "isPayback",
              "type": "bool"
            }
          ],
          "internalType": "struct Loan.LoanRequest[]",
          "name": "",
          "type": "tuple[]"
        }
      ],
      "stateMutability": "view",
      "type": "function"
    },
    {
      "inputs": [],
      "name": "getUserOverdueLoans",
      "outputs": [
        {
          "components": [
            {
              "internalType": "address",
              "name": "borrower",
              "type": "address"
            },
            {
              "internalType": "uint256",
              "name": "loanAmount",
              "type": "uint256"
            },
            {
              "internalType": "uint256",
              "name": "collateralAmount",
              "type": "uint256"
            },
            {
              "internalType": "uint256",
              "name": "paybackAmount",
              "type": "uint256"
            },
            {
              "internalType": "uint256",
              "name": "loanDueDate",
              "type": "uint256"
            },
            {
              "internalType": "uint256",
              "name": "duration",
              "type": "uint256"
            },
            {
              "internalType": "uint256",
              "name": "loanId",
              "type": "uint256"
            },
            {
              "internalType": "bool",
              "name": "isPayback",
              "type": "bool"
            }
          ],
          "internalType": "struct Loan.LoanRequest[]",
          "name": "",
          "type": "tuple[]"
        }
      ],
      "stateMutability": "view",
      "type": "function"
    },
    {
      "inputs": [
        {
          "internalType": "uint256",
          "name": "_amount",
          "type": "uint256"
        }
      ],
      "name": "init",
      "outputs": [],
      "stateMutability": "payable",
      "type": "function"
    },
    {
      "inputs": [],
      "name": "lendCount",
      "outputs": [
        {
          "internalType": "uint256",
          "name": "",
          "type": "uint256"
        }
      ],
      "stateMutability": "view",
      "type": "function"
    },
    {
      "inputs": [],
      "name": "lendEther",
      "outputs": [],
      "stateMutability": "payable",
      "type": "function"
    },
    {
      "inputs": [
        {
          "internalType": "uint256",
          "name": "_amount",
          "type": "uint256"
        }
      ],
      "name": "lendToken",
      "outputs": [],
      "stateMutability": "nonpayable",
      "type": "function"
    },
    {
      "inputs": [
        {
          "internalType": "address",
          "name": "",
          "type": "address"
        },
        {
          "internalType": "uint256",
          "name": "",
          "type": "uint256"
        }
      ],
      "name": "lends",
      "outputs": [
        {
          "internalType": "address",
          "name": "lender",
          "type": "address"
        },
        {
          "internalType": "uint256",
          "name": "lendId",
          "type": "uint256"
        },
        {
          "internalType": "uint256",
          "name": "lendAmountEther",
          "type": "uint256"
        },
        {
          "internalType": "uint256",
          "name": "lendAmountToken",
          "type": "uint256"
        },
        {
          "internalType": "uint256",
          "name": "paybackAmountEther",
          "type": "uint256"
        },
        {
          "internalType": "uint256",
          "name": "paybackAmountToken",
          "type": "uint256"
        },
        {
          "internalType": "uint256",
          "name": "timeLend",
          "type": "uint256"
        },
        {
          "internalType": "uint256",
          "name": "timeCanGetInterest",
          "type": "uint256"
        },
        {
          "internalType": "bool",
          "name": "retrieved",
          "type": "bool"
        },
        {
          "internalType": "bool",
          "name": "isLendEther",
          "type": "bool"
        }
      ],
      "stateMutability": "view",
      "type": "function"
    },
    {
      "inputs": [],
      "name": "loanCount",
      "outputs": [
        {
          "internalType": "uint256",
          "name": "",
          "type": "uint256"
        }
      ],
      "stateMutability": "view",
      "type": "function"
    },
    {
      "inputs": [
        {
          "internalType": "uint256",
          "name": "_amount",
          "type": "uint256"
        },
        {
          "internalType": "uint256",
          "name": "_duration",
          "type": "uint256"
        }
      ],
      "name": "loanEther",
      "outputs": [],
      "stateMutability": "nonpayable",
      "type": "function"
    },
    {
      "inputs": [
        {
          "internalType": "address",
          "name": "",
          "type": "address"
        },
        {
          "internalType": "uint256",
          "name": "",
          "type": "uint256"
        }
      ],
      "name": "loans",
      "outputs": [
        {
          "internalType": "address",
          "name": "borrower",
          "type": "address"
        },
        {
          "internalType": "uint256",
          "name": "loanAmount",
          "type": "uint256"
        },
        {
          "internalType": "uint256",
          "name": "collateralAmount",
          "type": "uint256"
        },
        {
          "internalType": "uint256",
          "name": "paybackAmount",
          "type": "uint256"
        },
        {
          "internalType": "uint256",
          "name": "loanDueDate",
          "type": "uint256"
        },
        {
          "internalType": "uint256",
          "name": "duration",
          "type": "uint256"
        },
        {
          "internalType": "uint256",
          "name": "loanId",
          "type": "uint256"
        },
        {
          "internalType": "bool",
          "name": "isPayback",
          "type": "bool"
        }
      ],
      "stateMutability": "view",
      "type": "function"
    },
    {
      "inputs": [],
      "name": "owner",
      "outputs": [
        {
          "internalType": "address",
          "name": "",
          "type": "address"
        }
      ],
      "stateMutability": "view",
      "type": "function"
    },
    {
      "inputs": [
        {
          "internalType": "uint256",
          "name": "_id",
          "type": "uint256"
        }
      ],
      "name": "payback",
      "outputs": [],
      "stateMutability": "payable",
      "type": "function"
    },
    {
      "inputs": [],
      "name": "tokenAddress",
      "outputs": [
        {
          "internalType": "address",
          "name": "",
          "type": "address"
        }
      ],
      "stateMutability": "view",
      "type": "function"
    },
    {
      "inputs": [],
      "name": "totalLiquidity",
      "outputs": [
        {
          "internalType": "uint256",
          "name": "",
          "type": "uint256"
        }
      ],
      "stateMutability": "view",
      "type": "function"
    },
    {
      "inputs": [
        {
          "internalType": "address",
          "name": "",
          "type": "address"
        }
      ],
      "name": "userLendsCount",
      "outputs": [
        {
          "internalType": "uint256",
          "name": "",
          "type": "uint256"
        }
      ],
      "stateMutability": "view",
      "type": "function"
    },
    {
      "inputs": [
        {
          "internalType": "address",
          "name": "",
          "type": "address"
        }
      ],
      "name": "userLoansCount",
      "outputs": [
        {
          "internalType": "uint256",
          "name": "",
          "type": "uint256"
        }
      ],
      "stateMutability": "view",
      "type": "function"
    },
    {
      "inputs": [
        {
          "internalType": "uint256",
          "name": "_id",
          "type": "uint256"
        }
      ],
      "name": "withdraw",
      "outputs": [],
      "stateMutability": "nonpayable",
      "type": "function"
    }
  ],
  "bytecode": "0x6080604052655af3107a40006005553480156200001b57600080fd5b506040516200430f3803806200430f8339818101604052810190620000419190620000f7565b336000806101000a81548173ffffffffffffffffffffffffffffffffffffffff021916908373ffffffffffffffffffffffffffffffffffffffff160217905550600180819055506001600281905550600060038190555080600460006101000a81548173ffffffffffffffffffffffffffffffffffffffff021916908373ffffffffffffffffffffffffffffffffffffffff1602179055505062000171565b600081519050620000f18162000157565b92915050565b6000602082840312156200010a57600080fd5b60006200011a84828501620000e0565b91505092915050565b6000620001308262000137565b9050919050565b600073ffffffffffffffffffffffffffffffffffffffff82169050919050565b620001628162000123565b81146200016e57600080fd5b50565b61418e80620001816000396000f3fe60806040526004361061014b5760003560e01c80638a6a29a0116100b6578063a557b17d1161006f578063a557b17d146104ab578063a846c2fd146104d6578063b7b0422d146104f2578063ce63094d1461050e578063d22bc44114610539578063d3917e05146105645761014b565b80638a6a29a01461036e5780638da5cb5b146103ab5780639197b12e146103d657806398c61c37146103ff5780639940d13f146104435780639d76ea58146104805761014b565b80634c0a79fb116101085780634c0a79fb1461027b5780635d4c912c146102b857806360089fca146102e3578063699e0f561461030e57806371d1a7011461033957806376e40c9c146103645761014b565b806315770f9214610150578063168c738c1461017b5780632ac48d59146101a65780632e1a7d4d146101cf578063439b3543146101f8578063484aaa991461023e575b600080fd5b34801561015c57600080fd5b506101656105a1565b6040516101729190613a0c565b60405180910390f35b34801561018757600080fd5b506101906105a7565b60405161019d91906137d8565b60405180910390f35b3480156101b257600080fd5b506101cd60048036038101906101c891906130c9565b610839565b005b3480156101db57600080fd5b506101f660048036038101906101f191906130c9565b610d51565b005b34801561020457600080fd5b5061021f600480360381019061021a9190613064565b6112d8565b6040516102359a9998979695949392919061371a565b60405180910390f35b34801561024a57600080fd5b50610265600480360381019061026091906130c9565b611373565b60405161027291906137fa565b60405180910390f35b34801561028757600080fd5b506102a2600480360381019061029d919061303b565b611392565b6040516102af9190613a0c565b60405180910390f35b3480156102c457600080fd5b506102cd6113aa565b6040516102da91906137d8565b60405180910390f35b3480156102ef57600080fd5b506102f861163c565b60405161030591906137d8565b60405180910390f35b34801561031a57600080fd5b506103236118ad565b6040516103309190613a0c565b60405180910390f35b34801561034557600080fd5b5061034e6118b3565b60405161035b91906137b6565b60405180910390f35b61036c611b49565b005b34801561037a57600080fd5b506103956004803603810190610390919061303b565b611eea565b6040516103a29190613a0c565b60405180910390f35b3480156103b757600080fd5b506103c0611f02565b6040516103cd91906135ce565b60405180910390f35b3480156103e257600080fd5b506103fd60048036038101906103f891906130f2565b611f26565b005b34801561040b57600080fd5b5061042660048036038101906104219190613064565b6125fe565b60405161043a98979695949392919061369c565b60405180910390f35b34801561044f57600080fd5b5061046a600480360381019061046591906130c9565b612680565b6040516104779190613a0c565b60405180910390f35b34801561048c57600080fd5b506104956126cc565b6040516104a291906135ce565b60405180910390f35b3480156104b757600080fd5b506104c06126f2565b6040516104cd91906137b6565b60405180910390f35b6104f060048036038101906104eb91906130c9565b612999565b005b61050c600480360381019061050791906130c9565b612ccc565b005b34801561051a57600080fd5b50610523612e85565b6040516105309190613a0c565b60405180910390f35b34801561054557600080fd5b5061054e612e8b565b60405161055b9190613a0c565b60405180910390f35b34801561057057600080fd5b5061058b600480360381019061058691906130c9565b612e91565b6040516105989190613a0c565b60405180910390f35b60035481565b60606000600660003373ffffffffffffffffffffffffffffffffffffffff1673ffffffffffffffffffffffffffffffffffffffff1681526020019081526020016000205467ffffffffffffffff81111561062a577f4e487b7100000000000000000000000000000000000000000000000000000000600052604160045260246000fd5b60405190808252806020026020018201604052801561066357816020015b610650612f32565b8152602001906001900390816106485790505b50905060005b600660003373ffffffffffffffffffffffffffffffffffffffff1673ffffffffffffffffffffffffffffffffffffffff16815260200190815260200160002054811015610831576000600860003373ffffffffffffffffffffffffffffffffffffffff1673ffffffffffffffffffffffffffffffffffffffff1681526020019081526020016000206000838152602001908152602001600020604051806101000160405290816000820160009054906101000a900473ffffffffffffffffffffffffffffffffffffffff1673ffffffffffffffffffffffffffffffffffffffff1673ffffffffffffffffffffffffffffffffffffffff1681526020016001820154815260200160028201548152602001600382015481526020016004820154815260200160058201548152602001600682015481526020016007820160009054906101000a900460ff16151515158152505090508060e001511580156107d25750428160800151115b1561081d5780838381518110610811577f4e487b7100000000000000000000000000000000000000000000000000000000600052603260045260246000fd5b60200260200101819052505b50808061082990613cd8565b915050610669565b508091505090565b600460009054906101000a900473ffffffffffffffffffffffffffffffffffffffff1673ffffffffffffffffffffffffffffffffffffffff166323b872dd3330846040518463ffffffff1660e01b8152600401610898939291906135e9565b602060405180830381600087803b1580156108b257600080fd5b505af11580156108c6573d6000803e3d6000fd5b505050506040513d601f19601f820116820180604052508101906108ea91906130a0565b610929576040517f08c379a00000000000000000000000000000000000000000000000000000000081526004016109209061388c565b60405180910390fd5b610931612f8f565b33816000019073ffffffffffffffffffffffffffffffffffffffff16908173ffffffffffffffffffffffffffffffffffffffff1681525050600760003373ffffffffffffffffffffffffffffffffffffffff1673ffffffffffffffffffffffffffffffffffffffff1681526020019081526020016000205481602001818152505060008160400181815250508181606001818152505060008160800181815250506109f960646109eb606985612eda90919063ffffffff16565b612ef090919063ffffffff16565b8160a0018181525050428160c001818152505062278d0042610a1b9190613b7b565b8160e001818152505060008161010001901515908115158152505060008161012001901515908115158152505080600960003373ffffffffffffffffffffffffffffffffffffffff1673ffffffffffffffffffffffffffffffffffffffff1681526020019081526020016000206000600760003373ffffffffffffffffffffffffffffffffffffffff1673ffffffffffffffffffffffffffffffffffffffff16815260200190815260200160002054815260200190815260200160002060008201518160000160006101000a81548173ffffffffffffffffffffffffffffffffffffffff021916908373ffffffffffffffffffffffffffffffffffffffff1602179055506020820151816001015560408201518160020155606082015181600301556080820151816004015560a0820151816005015560c0820151816006015560e082015181600701556101008201518160080160006101000a81548160ff0219169083151502179055506101208201518160080160016101000a81548160ff02191690831515021790555090505060026000815480929190610bbd90613cd8565b9190505550600760003373ffffffffffffffffffffffffffffffffffffffff1673ffffffffffffffffffffffffffffffffffffffff1681526020019081526020016000206000815480929190610c1290613cd8565b9190505550600460009054906101000a900473ffffffffffffffffffffffffffffffffffffffff1673ffffffffffffffffffffffffffffffffffffffff166339509351308360a001516040518363ffffffff1660e01b8152600401610c78929190613673565b602060405180830381600087803b158015610c9257600080fd5b505af1158015610ca6573d6000803e3d6000fd5b505050506040513d601f19601f82011682018060405250810190610cca91906130a0565b50806000015173ffffffffffffffffffffffffffffffffffffffff167f5b9322c559e6b2db0a892c869ddb942c5980d914e7b8d96dd9e0e532dd1281658260400151836060015184608001518560a001518660c001518760e00151886101000151896101200151604051610d45989796959493929190613a7a565b60405180910390a25050565b6000600960003373ffffffffffffffffffffffffffffffffffffffff1673ffffffffffffffffffffffffffffffffffffffff16815260200190815260200160002060008381526020019081526020016000209050600081600101541015610ded576040517f08c379a0000000000000000000000000000000000000000000000000000000008152600401610de49061398c565b60405180910390fd5b600015158160080160009054906101000a900460ff16151514610e45576040517f08c379a0000000000000000000000000000000000000000000000000000000008152600401610e3c9061394c565b60405180910390fd5b3373ffffffffffffffffffffffffffffffffffffffff168160000160009054906101000a900473ffffffffffffffffffffffffffffffffffffffff1673ffffffffffffffffffffffffffffffffffffffff1614610ed7576040517f08c379a0000000000000000000000000000000000000000000000000000000008152600401610ece906138ac565b60405180910390fd5b60018160080160006101000a81548160ff02191690831515021790555080600701544211156110ec578060080160019054906101000a900460ff1615610fcb578060000160009054906101000a900473ffffffffffffffffffffffffffffffffffffffff1673ffffffffffffffffffffffffffffffffffffffff166108fc82600401549081150290604051600060405180830381858888f19350505050158015610f85573d6000803e3d6000fd5b507ffc804478af7c9378c835f224708272f349edb4d7d8598dd44d0ae90ea362c7836001808360040154604051610fbe93929190613815565b60405180910390a16110e7565b600460009054906101000a900473ffffffffffffffffffffffffffffffffffffffff1673ffffffffffffffffffffffffffffffffffffffff166323b872dd308360000160009054906101000a900473ffffffffffffffffffffffffffffffffffffffff1684600501546040518463ffffffff1660e01b8152600401611052939291906135e9565b602060405180830381600087803b15801561106c57600080fd5b505af1158015611080573d6000803e3d6000fd5b505050506040513d601f19601f820116820180604052508101906110a491906130a0565b507ffc804478af7c9378c835f224708272f349edb4d7d8598dd44d0ae90ea362c7836001600083600501546040516110de93929190613815565b60405180910390a15b6112d4565b8060080160019054906101000a900460ff16156111b8578060000160009054906101000a900473ffffffffffffffffffffffffffffffffffffffff1673ffffffffffffffffffffffffffffffffffffffff166108fc82600201549081150290604051600060405180830381858888f19350505050158015611171573d6000803e3d6000fd5b507ffc804478af7c9378c835f224708272f349edb4d7d8598dd44d0ae90ea362c7836000600183600201546040516111ab93929190613815565b60405180910390a16112d3565b600460009054906101000a900473ffffffffffffffffffffffffffffffffffffffff1673ffffffffffffffffffffffffffffffffffffffff166323b872dd308360000160009054906101000a900473ffffffffffffffffffffffffffffffffffffffff1684600301546040518463ffffffff1660e01b815260040161123f939291906135e9565b602060405180830381600087803b15801561125957600080fd5b505af115801561126d573d6000803e3d6000fd5b505050506040513d601f19601f8201168201806040525081019061129191906130a0565b507ffc804478af7c9378c835f224708272f349edb4d7d8598dd44d0ae90ea362c78360008083600301546040516112ca93929190613815565b60405180910390a15b5b5050565b6009602052816000526040600020602052806000526040600020600091509150508060000160009054906101000a900473ffffffffffffffffffffffffffffffffffffffff16908060010154908060020154908060030154908060040154908060050154908060060154908060070154908060080160009054906101000a900460ff16908060080160019054906101000a900460ff1690508a565b6000600354821115611388576000905061138d565b600190505b919050565b60066020528060005260406000206000915090505481565b60606000600660003373ffffffffffffffffffffffffffffffffffffffff1673ffffffffffffffffffffffffffffffffffffffff1681526020019081526020016000205467ffffffffffffffff81111561142d577f4e487b7100000000000000000000000000000000000000000000000000000000600052604160045260246000fd5b60405190808252806020026020018201604052801561146657816020015b611453612f32565b81526020019060019003908161144b5790505b50905060005b600660003373ffffffffffffffffffffffffffffffffffffffff1673ffffffffffffffffffffffffffffffffffffffff16815260200190815260200160002054811015611634576000600860003373ffffffffffffffffffffffffffffffffffffffff1673ffffffffffffffffffffffffffffffffffffffff1681526020019081526020016000206000838152602001908152602001600020604051806101000160405290816000820160009054906101000a900473ffffffffffffffffffffffffffffffffffffffff1673ffffffffffffffffffffffffffffffffffffffff1673ffffffffffffffffffffffffffffffffffffffff1681526020016001820154815260200160028201548152602001600382015481526020016004820154815260200160058201548152602001600682015481526020016007820160009054906101000a900460ff16151515158152505090508060e001511580156115d55750428160800151105b156116205780838381518110611614577f4e487b7100000000000000000000000000000000000000000000000000000000600052603260045260246000fd5b60200260200101819052505b50808061162c90613cd8565b91505061146c565b508091505090565b60606000600660003373ffffffffffffffffffffffffffffffffffffffff1673ffffffffffffffffffffffffffffffffffffffff1681526020019081526020016000205467ffffffffffffffff8111156116bf577f4e487b7100000000000000000000000000000000000000000000000000000000600052604160045260246000fd5b6040519080825280602002602001820160405280156116f857816020015b6116e5612f32565b8152602001906001900390816116dd5790505b50905060005b600660003373ffffffffffffffffffffffffffffffffffffffff1673ffffffffffffffffffffffffffffffffffffffff168152602001908152602001600020548110156118a557600860003373ffffffffffffffffffffffffffffffffffffffff1673ffffffffffffffffffffffffffffffffffffffff1681526020019081526020016000206000828152602001908152602001600020604051806101000160405290816000820160009054906101000a900473ffffffffffffffffffffffffffffffffffffffff1673ffffffffffffffffffffffffffffffffffffffff1673ffffffffffffffffffffffffffffffffffffffff1681526020016001820154815260200160028201548152602001600382015481526020016004820154815260200160058201548152602001600682015481526020016007820160009054906101000a900460ff161515151581525050828281518110611887577f4e487b7100000000000000000000000000000000000000000000000000000000600052603260045260246000fd5b6020026020010181905250808061189d90613cd8565b9150506116fe565b508091505090565b60025481565b60606000600760003373ffffffffffffffffffffffffffffffffffffffff1673ffffffffffffffffffffffffffffffffffffffff1681526020019081526020016000205467ffffffffffffffff811115611936577f4e487b7100000000000000000000000000000000000000000000000000000000600052604160045260246000fd5b60405190808252806020026020018201604052801561196f57816020015b61195c612f8f565b8152602001906001900390816119545790505b50905060005b600760003373ffffffffffffffffffffffffffffffffffffffff1673ffffffffffffffffffffffffffffffffffffffff16815260200190815260200160002054811015611b4157600960003373ffffffffffffffffffffffffffffffffffffffff1673ffffffffffffffffffffffffffffffffffffffff1681526020019081526020016000206000828152602001908152602001600020604051806101400160405290816000820160009054906101000a900473ffffffffffffffffffffffffffffffffffffffff1673ffffffffffffffffffffffffffffffffffffffff1673ffffffffffffffffffffffffffffffffffffffff168152602001600182015481526020016002820154815260200160038201548152602001600482015481526020016005820154815260200160068201548152602001600782015481526020016008820160009054906101000a900460ff161515151581526020016008820160019054906101000a900460ff161515151581525050828281518110611b23577f4e487b7100000000000000000000000000000000000000000000000000000000600052603260045260246000fd5b60200260200101819052508080611b3990613cd8565b915050611975565b508091505090565b655af3107a4000341015611b5c57600080fd5b611b64612f8f565b33816000019073ffffffffffffffffffffffffffffffffffffffff16908173ffffffffffffffffffffffffffffffffffffffff1681525050600760003373ffffffffffffffffffffffffffffffffffffffff1673ffffffffffffffffffffffffffffffffffffffff16815260200190815260200160002054816020018181525050348160400181815250506000816060018181525050611c216064611c13606934612eda90919063ffffffff16565b612ef090919063ffffffff16565b81608001818152505060008160a0018181525050428160c001818152505062278d0042611c4e9190613b7b565b8160e001818152505060008161010001901515908115158152505060018161012001901515908115158152505080600960003373ffffffffffffffffffffffffffffffffffffffff1673ffffffffffffffffffffffffffffffffffffffff1681526020019081526020016000206000600760003373ffffffffffffffffffffffffffffffffffffffff1673ffffffffffffffffffffffffffffffffffffffff16815260200190815260200160002054815260200190815260200160002060008201518160000160006101000a81548173ffffffffffffffffffffffffffffffffffffffff021916908373ffffffffffffffffffffffffffffffffffffffff1602179055506020820151816001015560408201518160020155606082015181600301556080820151816004015560a0820151816005015560c0820151816006015560e082015181600701556101008201518160080160006101000a81548160ff0219169083151502179055506101208201518160080160016101000a81548160ff02191690831515021790555090505060026000815480929190611df090613cd8565b9190505550600760003373ffffffffffffffffffffffffffffffffffffffff1673ffffffffffffffffffffffffffffffffffffffff1681526020019081526020016000206000815480929190611e4590613cd8565b9190505550611e5f34600354612f0690919063ffffffff16565b600381905550806000015173ffffffffffffffffffffffffffffffffffffffff167f5b9322c559e6b2db0a892c869ddb942c5980d914e7b8d96dd9e0e532dd1281658260400151836060015184608001518560a001518660c001518760e00151886101000151896101200151604051611edf989796959493929190613a7a565b60405180910390a250565b60076020528060005260406000206000915090505481565b60008054906101000a900473ffffffffffffffffffffffffffffffffffffffff1681565b600554821015611f6b576040517f08c379a0000000000000000000000000000000000000000000000000000000008152600401611f629061386c565b60405180910390fd5b611f7482611373565b611fb3576040517f08c379a0000000000000000000000000000000000000000000000000000000008152600401611faa9061384c565b60405180910390fd5b611fbb612f32565b33816000019073ffffffffffffffffffffffffffffffffffffffff16908173ffffffffffffffffffffffffffffffffffffffff168152505082816020018181525050670de0b6b3a764000061200f84612680565b6120199190613c02565b816040018181525050600660003373ffffffffffffffffffffffffffffffffffffffff1673ffffffffffffffffffffffffffffffffffffffff168152602001908152602001600020548160c001818152505060008160e001901515908115158152505060078214156120df576120ac606461209e606a86612eda90919063ffffffff16565b612ef090919063ffffffff16565b81606001818152505062093a80426120c49190613b7b565b81608001818152505062093a808160a00181815250506121e2565b600e8214156121425761210f6064612101606b86612eda90919063ffffffff16565b612ef090919063ffffffff16565b81606001818152505062127500426121279190613b7b565b816080018181525050621275008160a00181815250506121e1565b601e8214156121a5576121726064612164606c86612eda90919063ffffffff16565b612ef090919063ffffffff16565b81606001818152505062278d004261218a9190613b7b565b81608001818152505062278d008160a00181815250506121e0565b6040517f08c379a00000000000000000000000000000000000000000000000000000000081526004016121d7906139cc565b60405180910390fd5b5b5b600460009054906101000a900473ffffffffffffffffffffffffffffffffffffffff1673ffffffffffffffffffffffffffffffffffffffff166323b872dd333084604001516040518463ffffffff1660e01b8152600401612245939291906135e9565b602060405180830381600087803b15801561225f57600080fd5b505af1158015612273573d6000803e3d6000fd5b505050506040513d601f19601f8201168201806040525081019061229791906130a0565b6122d6576040517f08c379a00000000000000000000000000000000000000000000000000000000081526004016122cd9061396c565b60405180910390fd5b3373ffffffffffffffffffffffffffffffffffffffff166108fc849081150290604051600060405180830381858888f1935050505015801561231c573d6000803e3d6000fd5b50600460009054906101000a900473ffffffffffffffffffffffffffffffffffffffff1673ffffffffffffffffffffffffffffffffffffffff1663395093513083604001516040518363ffffffff1660e01b815260040161237e929190613673565b602060405180830381600087803b15801561239857600080fd5b505af11580156123ac573d6000803e3d6000fd5b505050506040513d601f19601f820116820180604052508101906123d091906130a0565b5080600860003373ffffffffffffffffffffffffffffffffffffffff1673ffffffffffffffffffffffffffffffffffffffff1681526020019081526020016000206000600660003373ffffffffffffffffffffffffffffffffffffffff1673ffffffffffffffffffffffffffffffffffffffff16815260200190815260200160002054815260200190815260200160002060008201518160000160006101000a81548173ffffffffffffffffffffffffffffffffffffffff021916908373ffffffffffffffffffffffffffffffffffffffff1602179055506020820151816001015560408201518160020155606082015181600301556080820151816004015560a0820151816005015560c0820151816006015560e08201518160070160006101000a81548160ff0219169083151502179055509050506001600081548092919061251a90613cd8565b9190505550600660003373ffffffffffffffffffffffffffffffffffffffff1673ffffffffffffffffffffffffffffffffffffffff168152602001908152602001600020600081548092919061256f90613cd8565b919050555061258983600354612f1c90919063ffffffff16565b6003819055503373ffffffffffffffffffffffffffffffffffffffff167f6ec47479b666ea2a5d4da977be8256c787c5724698308bd3c981e7dcd2285fa482602001518360400151846060015185608001518660a001516040516125f1959493929190613a27565b60405180910390a2505050565b6008602052816000526040600020602052806000526040600020600091509150508060000160009054906101000a900473ffffffffffffffffffffffffffffffffffffffff16908060010154908060020154908060030154908060040154908060050154908060060154908060070160009054906101000a900460ff16905088565b6000806126aa606461269c607386612eda90919063ffffffff16565b612ef090919063ffffffff16565b90506126c160055482612ef090919063ffffffff16565b905080915050919050565b600460009054906101000a900473ffffffffffffffffffffffffffffffffffffffff1681565b60606000600760003373ffffffffffffffffffffffffffffffffffffffff1673ffffffffffffffffffffffffffffffffffffffff1681526020019081526020016000205467ffffffffffffffff811115612775577f4e487b7100000000000000000000000000000000000000000000000000000000600052604160045260246000fd5b6040519080825280602002602001820160405280156127ae57816020015b61279b612f8f565b8152602001906001900390816127935790505b50905060005b600760003373ffffffffffffffffffffffffffffffffffffffff1673ffffffffffffffffffffffffffffffffffffffff16815260200190815260200160002054811015612991576000600960003373ffffffffffffffffffffffffffffffffffffffff1673ffffffffffffffffffffffffffffffffffffffff1681526020019081526020016000206000838152602001908152602001600020604051806101400160405290816000820160009054906101000a900473ffffffffffffffffffffffffffffffffffffffff1673ffffffffffffffffffffffffffffffffffffffff1673ffffffffffffffffffffffffffffffffffffffff168152602001600182015481526020016002820154815260200160038201548152602001600482015481526020016005820154815260200160068201548152602001600782015481526020016008820160009054906101000a900460ff161515151581526020016008820160019054906101000a900460ff161515151581525050905080610100015161297d5780838381518110612971577f4e487b7100000000000000000000000000000000000000000000000000000000600052603260045260246000fd5b60200260200101819052505b50808061298990613cd8565b9150506127b4565b508091505090565b6000600860003373ffffffffffffffffffffffffffffffffffffffff1673ffffffffffffffffffffffffffffffffffffffff168152602001908152602001600020600083815260200190815260200160002090503373ffffffffffffffffffffffffffffffffffffffff168160000160009054906101000a900473ffffffffffffffffffffffffffffffffffffffff1673ffffffffffffffffffffffffffffffffffffffff1614612a7f576040517f08c379a0000000000000000000000000000000000000000000000000000000008152600401612a76906138ec565b60405180910390fd5b8060070160009054906101000a900460ff1615612ad1576040517f08c379a0000000000000000000000000000000000000000000000000000000008152600401612ac8906139ec565b60405180910390fd5b8060040154421115612b18576040517f08c379a0000000000000000000000000000000000000000000000000000000008152600401612b0f9061390c565b60405180910390fd5b8060030154341015612b5f576040517f08c379a0000000000000000000000000000000000000000000000000000000008152600401612b56906139ac565b60405180910390fd5b600460009054906101000a900473ffffffffffffffffffffffffffffffffffffffff1673ffffffffffffffffffffffffffffffffffffffff166323b872dd303384600201546040518463ffffffff1660e01b8152600401612bc2939291906135e9565b602060405180830381600087803b158015612bdc57600080fd5b505af1158015612bf0573d6000803e3d6000fd5b505050506040513d601f19601f82011682018060405250810190612c1491906130a0565b612c53576040517f08c379a0000000000000000000000000000000000000000000000000000000008152600401612c4a9061392c565b60405180910390fd5b60018160070160006101000a81548160ff0219169083151502179055507ff022a4d91d174959862c530aa30a63411b4f0e37186283bd5fc0000acc217a85338260070160009054906101000a900460ff164284600301548560020154604051612cc0959493929190613620565b60405180910390a15050565b600060035414612cdb57600080fd5b600460009054906101000a900473ffffffffffffffffffffffffffffffffffffffff1673ffffffffffffffffffffffffffffffffffffffff166323b872dd3330846040518463ffffffff1660e01b8152600401612d3a939291906135e9565b602060405180830381600087803b158015612d5457600080fd5b505af1158015612d68573d6000803e3d6000fd5b505050506040513d601f19601f82011682018060405250810190612d8c91906130a0565b612dcb576040517f08c379a0000000000000000000000000000000000000000000000000000000008152600401612dc2906138cc565b60405180910390fd5b600460009054906101000a900473ffffffffffffffffffffffffffffffffffffffff1673ffffffffffffffffffffffffffffffffffffffff16633950935130836040518363ffffffff1660e01b8152600401612e28929190613673565b602060405180830381600087803b158015612e4257600080fd5b505af1158015612e56573d6000803e3d6000fd5b505050506040513d601f19601f82011682018060405250810190612e7a91906130a0565b504760038190555050565b60015481565b60055481565b600080612ecf6064612ec16073612eb360055488612eda90919063ffffffff16565b612ef090919063ffffffff16565b612eda90919063ffffffff16565b905080915050919050565b60008183612ee89190613c02565b905092915050565b60008183612efe9190613bd1565b905092915050565b60008183612f149190613b7b565b905092915050565b60008183612f2a9190613c5c565b905092915050565b604051806101000160405280600073ffffffffffffffffffffffffffffffffffffffff1681526020016000815260200160008152602001600081526020016000815260200160008152602001600081526020016000151581525090565b604051806101400160405280600073ffffffffffffffffffffffffffffffffffffffff168152602001600081526020016000815260200160008152602001600081526020016000815260200160008152602001600081526020016000151581526020016000151581525090565b60008135905061300b81614113565b92915050565b6000815190506130208161412a565b92915050565b60008135905061303581614141565b92915050565b60006020828403121561304d57600080fd5b600061305b84828501612ffc565b91505092915050565b6000806040838503121561307757600080fd5b600061308585828601612ffc565b925050602061309685828601613026565b9150509250929050565b6000602082840312156130b257600080fd5b60006130c084828501613011565b91505092915050565b6000602082840312156130db57600080fd5b60006130e984828501613026565b91505092915050565b6000806040838503121561310557600080fd5b600061311385828601613026565b925050602061312485828601613026565b9150509250929050565b600061313a8383613442565b6101408301905092915050565b6000613153838361350e565b6101008301905092915050565b61316981613c90565b82525050565b61317881613c90565b82525050565b600061318982613b18565b6131938185613b48565b935061319e83613af8565b8060005b838110156131cf5781516131b6888261312e565b97506131c183613b2e565b9250506001810190506131a2565b5085935050505092915050565b60006131e782613b23565b6131f18185613b59565b93506131fc83613b08565b8060005b8381101561322d5781516132148882613147565b975061321f83613b3b565b925050600181019050613200565b5085935050505092915050565b61324381613ca2565b82525050565b61325281613ca2565b82525050565b6000613265601f83613b6a565b915061327082613d7f565b602082019050919050565b6000613288602b83613b6a565b915061329382613da8565b604082019050919050565b60006132ab603683613b6a565b91506132b682613df7565b604082019050919050565b60006132ce602783613b6a565b91506132d982613e46565b604082019050919050565b60006132f1602383613b6a565b91506132fc82613e95565b604082019050919050565b6000613314602283613b6a565b915061331f82613ee4565b604082019050919050565b6000613337601883613b6a565b915061334282613f33565b602082019050919050565b600061335a603983613b6a565b915061336582613f5c565b604082019050919050565b600061337d602583613b6a565b915061338882613fab565b604082019050919050565b60006133a0603683613b6a565b91506133ab82613ffa565b604082019050919050565b60006133c3602583613b6a565b91506133ce82614049565b604082019050919050565b60006133e6601983613b6a565b91506133f182614098565b602082019050919050565b6000613409601d83613b6a565b9150613414826140c1565b602082019050919050565b600061342c601883613b6a565b9150613437826140ea565b602082019050919050565b610140820160008201516134596000850182613160565b50602082015161346c60208501826135b0565b50604082015161347f60408501826135b0565b50606082015161349260608501826135b0565b5060808201516134a560808501826135b0565b5060a08201516134b860a08501826135b0565b5060c08201516134cb60c08501826135b0565b5060e08201516134de60e08501826135b0565b506101008201516134f361010085018261323a565b5061012082015161350861012085018261323a565b50505050565b610100820160008201516135256000850182613160565b50602082015161353860208501826135b0565b50604082015161354b60408501826135b0565b50606082015161355e60608501826135b0565b50608082015161357160808501826135b0565b5060a082015161358460a08501826135b0565b5060c082015161359760c08501826135b0565b5060e08201516135aa60e085018261323a565b50505050565b6135b981613cce565b82525050565b6135c881613cce565b82525050565b60006020820190506135e3600083018461316f565b92915050565b60006060820190506135fe600083018661316f565b61360b602083018561316f565b61361860408301846135bf565b949350505050565b600060a082019050613635600083018861316f565b6136426020830187613249565b61364f60408301866135bf565b61365c60608301856135bf565b61366960808301846135bf565b9695505050505050565b6000604082019050613688600083018561316f565b61369560208301846135bf565b9392505050565b6000610100820190506136b2600083018b61316f565b6136bf602083018a6135bf565b6136cc60408301896135bf565b6136d960608301886135bf565b6136e660808301876135bf565b6136f360a08301866135bf565b61370060c08301856135bf565b61370d60e0830184613249565b9998505050505050505050565b600061014082019050613730600083018d61316f565b61373d602083018c6135bf565b61374a604083018b6135bf565b613757606083018a6135bf565b61376460808301896135bf565b61377160a08301886135bf565b61377e60c08301876135bf565b61378b60e08301866135bf565b613799610100830185613249565b6137a7610120830184613249565b9b9a5050505050505050505050565b600060208201905081810360008301526137d0818461317e565b905092915050565b600060208201905081810360008301526137f281846131dc565b905092915050565b600060208201905061380f6000830184613249565b92915050565b600060608201905061382a6000830186613249565b6138376020830185613249565b61384460408301846135bf565b949350505050565b6000602082019050818103600083015261386581613258565b9050919050565b600060208201905081810360008301526138858161327b565b9050919050565b600060208201905081810360008301526138a58161329e565b9050919050565b600060208201905081810360008301526138c5816132c1565b9050919050565b600060208201905081810360008301526138e5816132e4565b9050919050565b6000602082019050818103600083015261390581613307565b9050919050565b600060208201905081810360008301526139258161332a565b9050919050565b600060208201905081810360008301526139458161334d565b9050919050565b6000602082019050818103600083015261396581613370565b9050919050565b6000602082019050818103600083015261398581613393565b9050919050565b600060208201905081810360008301526139a5816133b6565b9050919050565b600060208201905081810360008301526139c5816133d9565b9050919050565b600060208201905081810360008301526139e5816133fc565b9050919050565b60006020820190508181036000830152613a058161341f565b9050919050565b6000602082019050613a2160008301846135bf565b92915050565b600060a082019050613a3c60008301886135bf565b613a4960208301876135bf565b613a5660408301866135bf565b613a6360608301856135bf565b613a7060808301846135bf565b9695505050505050565b600061010082019050613a90600083018b6135bf565b613a9d602083018a6135bf565b613aaa60408301896135bf565b613ab760608301886135bf565b613ac460808301876135bf565b613ad160a08301866135bf565b613ade60c0830185613249565b613aeb60e0830184613249565b9998505050505050505050565b6000819050602082019050919050565b6000819050602082019050919050565b600081519050919050565b600081519050919050565b6000602082019050919050565b6000602082019050919050565b600082825260208201905092915050565b600082825260208201905092915050565b600082825260208201905092915050565b6000613b8682613cce565b9150613b9183613cce565b9250827fffffffffffffffffffffffffffffffffffffffffffffffffffffffffffffffff03821115613bc657613bc5613d21565b5b828201905092915050565b6000613bdc82613cce565b9150613be783613cce565b925082613bf757613bf6613d50565b5b828204905092915050565b6000613c0d82613cce565b9150613c1883613cce565b9250817fffffffffffffffffffffffffffffffffffffffffffffffffffffffffffffffff0483118215151615613c5157613c50613d21565b5b828202905092915050565b6000613c6782613cce565b9150613c7283613cce565b925082821015613c8557613c84613d21565b5b828203905092915050565b6000613c9b82613cae565b9050919050565b60008115159050919050565b600073ffffffffffffffffffffffffffffffffffffffff82169050919050565b6000819050919050565b6000613ce382613cce565b91507fffffffffffffffffffffffffffffffffffffffffffffffffffffffffffffffff821415613d1657613d15613d21565b5b600182019050919050565b7f4e487b7100000000000000000000000000000000000000000000000000000000600052601160045260246000fd5b7f4e487b7100000000000000000000000000000000000000000000000000000000600052601260045260246000fd5b7f6c6f616e45746865723a206e6f7420656e6f756768206c697175696469747900600082015250565b7f6c6f616e45746865723a204e6f7420656e6f7567682066756e6420696e206f7260008201527f64657220746f206c6f616e000000000000000000000000000000000000000000602082015250565b7f6c656e64546f6b656e3a205472616e7366657220746f6b656e2066726f6d207560008201527f73657220746f20636f6e7472616374206661696c656400000000000000000000602082015250565b7f776974686472617745746865723a204f6e6c79206c656e6465722063616e207760008201527f6974686472617700000000000000000000000000000000000000000000000000602082015250565b7f5472616e73616374696f6e206661696c6564206f6e20696e69742066756e637460008201527f696f6e0000000000000000000000000000000000000000000000000000000000602082015250565b7f7061796261636b3a204f6e6c7920626f72726f7765722063616e20706179626160008201527f636b000000000000000000000000000000000000000000000000000000000000602082015250565b7f7061796261636b3a206578636565642064756520646174650000000000000000600082015250565b7f7061796261636b3a205472616e7366657220636f6c6c61746572616c2066726f60008201527f6d20636f6e747261637420746f2075736572206661696c656400000000000000602082015250565b7f776974686472617745746865723a204c656e642072657175657374207265747260008201527f6965766564000000000000000000000000000000000000000000000000000000602082015250565b7f6c6f616e45746865723a205472616e7366657220746f6b656e2066726f6d207560008201527f73657220746f20636f6e7472616374206661696c656400000000000000000000602082015250565b7f776974686472617745746865723a204c656e642072657175657374206e6f742060008201527f76616c6964000000000000000000000000000000000000000000000000000000602082015250565b7f7061796261636b3a204e6f7420656e6f75676820657468657200000000000000600082015250565b7f6c6f616e45746865723a206e6f2076616c6964206475726174696f6e21000000600082015250565b7f7061796261636b3a207061796261636b20616c72656164790000000000000000600082015250565b61411c81613c90565b811461412757600080fd5b50565b61413381613ca2565b811461413e57600080fd5b50565b61414a81613cce565b811461415557600080fd5b5056fea2646970667358221220e953dc4a20d417fce0eb35886f9450f5c6fb7d4ba382331aa02585b51d6bfdd064736f6c63430008040033",
  "linkReferences": {},
  "deployedLinkReferences": {}
}